S01700004C6162355F4D75736963546F6E65722E7372656361
S11300000C945A000C946F000C946F000C946F00C5
S11300100C946F000C946F000C946F000C946F00A0
S11300200C946F000C946F000C946F000C946F0090
S11300300C946F000C946F000C946F000C946F0080
S11300400C946F000C946F000C946F000C946F0070
S11300500C946F000C946F000C946F000C946F0060
S11300600C946F000C946F000C946F000C946F0050
S11300700C946F000C946F000C946F000C946F0040
S11300800C946F000C946F000C946F000C946F0030
S11300900C946F000C946F000C946F000C946F0020
S11300A00C946F000C946F000C946F000C946F0010
S11300B00C946F0011241FBECFEFD8E0DEBFCDBF7C
S11300C011E0A0E0B1E0ECEBF1E002C005900D928C
S11300D0A031B107D9F70E94D5000C94DC000C9430
S11300E000008AB18F628AB984B184B985B18F6006
S11300F085B989B18F6089B9089584B5836284BD57
S11301008DEF87BD87B588BD85B58D6085BD0895A4
S113011050E047C08BB1E52FF0E061E070E0052EC0
S113012002C0660F771F0A94E2F7962F90958923F1
S11301308BB940E030C083B1242F30E090E0042E2E
S113014002C0959587950A94E2F780FD1FC083E06D
S113015090E0DC01AE1BBF0B821B930BAA0FBB1FED
S1130160AA0FBB1FA050BF4FA80FB91F8C9181507D
S113017087BD87B5869588BD83B190E0022E02C005
S1130180959587950A94E2F780FFF6CF8DEF87BDAA
S113019087B588BD4F5F443070F28BB1682B6BB963
S11301A05F5F543008F4B6CF08950E9471000E9436
S10F01B07D000E948800FDCFF894FFCF72
S11301BC47433F3B3835322F2C2A272523211F1D3B
S9030000FC
