:100000000C945A000C946C000C946C000C946C00D2
:100010000C946C000C946C000C946C000C946C00B0
:100020000C946C000C946C000C946C000C946C00A0
:100030000C946C000C946C000C94AC000C946C0050
:100040000C946C000C946C000C946C000C946C0080
:100050000C946C000C94B6000C946C000C946C0026
:100060000C946C000C946C000C946C000C946C0060
:100070000C946C000C946C000C946C000C946C0050
:100080000C946C000C946C000C946C000C946C0040
:100090000C946C000C946C000C946C000C946C0030
:1000A0000C946C000C946C000C946C000C946C0020
:1000B0000C946C0011241FBECFEFD8E0DEBFCDBF83
:1000C00021E0A0E0B1E001C01D92A230B207E1F74B
:1000D0000E9403010C943C020C9400008AB18860D9
:1000E0008AB984B1806284B987B18E7F87B985B1BE
:1000F000806285B90895ECE7F0E0808180648083B8
:100100008081807F8083EAE7F0E080818F6A80834E
:10011000EBE7F0E0808183608083089584B582609E
:1001200084BD8DE487BD85B5856085BDEEE6F0E0D4
:100130008081826080830895E0EBF0E080818362BB
:1001400080838DE48093B3008093B400E1EBF0E012
:1001500080818E60808308951F920F920FB60F9258
:1001600011240F900FBE0F901F9018951F920F92A1
:100170000FB60F9211242F933F934F935F936F937A
:100180007F938F939F93AF93BF93CF93DF93EF931F
:10019000FF93809178009091790090930101809372
:1001A0000001C4EBD0E01882609100017091010160
:1001B00080E090E00E94AE0121EE3AE744E551E490
:1001C0000E940D010E947F01688388818E3418F09F
:1001D0008DE48093B4008091B4008AB188608AB9BC
:1001E000FF91EF91DF91CF91BF91AF919F918F914F
:1001F0007F916F915F914F913F912F910F900FBE23
:100200000F901F90189578940E948E000E949C0079
:100210000E947B000E946E00FFCF0E9421010C947F
:1002200002020E94FB0158F00E94F40140F029F400
:100230005F3F29F00C94EB0151110C9436020C94A1
:10024000F1010E94130268F39923B1F3552391F34E
:10025000951B550BBB27AA2762177307840738F035
:100260009F5F5F4F220F331F441FAA1FA9F335D092
:100270000E2E3AF0E0E832D091505040E695001C46
:10028000CAF72BD0FE2F29D0660F771F881FBB1F00
:10029000261737074807AB07B0E809F0BB0B802DDE
:1002A000BF01FF2793585F4F3AF09E3F510578F00A
:1002B0000C94EB010C9436025F3FE4F3983ED4F3C8
:1002C000869577956795B795F7959F5FC9F7880FDE
:1002D000911D9695879597F90895E1E0660F771F30
:1002E000881FBB1F621773078407BA0720F0621BC1
:1002F000730B840BBA0BEE1F88F7E09508950E94EC
:100300001B0288F09F5798F0B92F9927B751B0F08A
:10031000E1F0660F771F881F991F1AF0BA95C9F789
:1003200014C0B13091F00E943502B1E008950C94F0
:100330003502672F782F8827B85F39F0B93FCCF3A3
:10034000869577956795B395D9F73EF49095809506
:10035000709561957F4F8F4F9F4F0895E89409C026
:1003600097FB3EF490958095709561957F4F8F4FE8
:100370009F4F9923A9F0F92F96E9BB279395F695FE
:10038000879577956795B795F111F8CFFAF4BB0F7C
:1003900011F460FF1BC06F5F7F4F8F4F9F4F16C0E0
:1003A000882311F096E911C0772321F09EE8872F6A
:1003B000762F05C0662371F096E8862F70E060E026
:1003C0002AF09A95660F771F881FDAF7880F96959F
:1003D000879597F9089597F99F6780E870E060E046
:1003E00008959FEF80EC089500240A9416161706CE
:1003F00018060906089500240A9412161306140616
:1004000005060895092E0394000C11F4882352F078
:10041000BB0F40F4BF2B11F460FF04C06F5F7F4F30
:100420008F4F9F4F089557FD9058440F551F59F017
:100430005F3F71F04795880F97FB991F61F09F3FD1
:1004400079F087950895121613061406551FF2CFFA
:100450004695F1DF08C0161617061806991FF1CF4A
:1004600086957105610508940895E894BB27662771
:0C0470007727CB0197F90895F894FFCF8F
:00000001FF
