S01300004C6162385F454550524F4D2E73726563A3
S11300000C945A000C946F000C946F000C946F00C5
S11300100C946F000C946F000C946F000C946F00A0
S11300200C946F000C946F000C946F000C946F0090
S11300300C946F000C946F000C949B000C94AD0016
S11300400C946F000C946F000C946F000C946F0070
S11300500C946F000C946F000C946F000C946F0060
S11300600C946F000C946F000C946F000C946F0050
S11300700C946F000C946F000C946F000C946F0040
S11300800C946F000C946F000C946F000C946F0030
S11300900C946F000C946F000C946F000C946F0020
S11300A00C946F000C946F000C946F000C946F0010
S11300B00C946F0011241FBECFEFD8E0DEBFCDBF7C
S11300C011E0A0E0B1E0E8EBF1E002C005900D9290
S11300D0AC30B107D9F70E94BC000C94DA000C9440
S11300E0000084B5836284BD8DE487BD18BC85B5EA
S11300F08D6085BDEEE6F0E08081866080830895A2
S11301008AB188608AB984B1806284B908958EE224
S113011090E00E94C4008B3008F080E0E82FF0E00B
S1130120E050FF4F908198BD61E0680F8EE290E04F
S11301300E94CC0008951F920F920FB60F921124C3
S11301408F9388B5882319F085B1806285B98F9122
S11301500F900FBE0F901F9018951F920F920FB61D
S11301600F9211248F9385B18F7D85B98F910F9054
S11301700FBE0F901F90189578940E9480000E94E3
S113018071000E948700FFCFF999FECF92BD81BD17
S1130190F89A992780B50895262FF999FECF1FBAAA
S11301A092BD81BD20BD0FB6F894FA9AF99A0FBE9C
S10B01B001960895F894FFCFB5
S10F01B800070F171E262E353D454C0095
S9030000FC
