S01500004C6162325F53657269616C494F2E7372656377
S11300000C945A000C9477000C9477000C947700AD
S11300100C9477000C9477000C9477000C94770080
S11300200C9477000C9477000C9477000C94770070
S11300300C9477000C9477000C9477000C94770060
S11300400C9477000C9477000C9477000C94770050
S11300500C9477000C9477000C9477000C94770040
S11300600C9477000C9477000C9477000C94770030
S11300700C9477000C9477000C9477000C94770020
S11300800C9477000C9477000C9477000C94770010
S11300900C9477000C9477000C9477000C94770000
S11300A00C9477000C9477000C9477000C947700F0
S11300B00C94770011241FBECFEFD8E0DEBFCDBF74
S11300C011E0A0E0B1E0E6E9F1E002C005900D9294
S11300D0AC30B107D9F721E0ACE0B1E001C01D922A
S11300E0AD30B207E1F70E948E000C94C9000C9465
S11300F000001092C50087E68093C40088E18093D5
S1130100C100E2ECF0E080818660808308959091E4
S1130110C00095FFFCCF8093C6000895CF93DF9372
S1130120CDB7DEB72C970FB6F894DEBF0FBECDBFA8
S11301300E9479008CE0E0E0F1E0DE01119601908C
S11301400D928A95E1F780910C0191E0980F9093BC
S11301500C01E1E0F0E0EC0FFD1FE80FF11D8081E0
S11301600E94870080910C01E1E0F0E0EC0FFD1F9C
S1130170E80FF11D80818111E6CF10920C012FEF61
S11301808BE49DE1215080409040E1F700C00000E5
S1090190DACFF894FFCF62
S10F01963832363433333430370D0A006D
S9030000FC
