S01300004C6162345F54696D6572732E73726563FB
S11300000C945A000C9464000C9464000C946400E6
S11300100C9464000C9464000C9464000C946400CC
S11300200C9464000C9464000C9464000C946400BC
S11300300C9464000C9464000C9464000C946400AC
S11300400C9464000C9464000C9464000C9464009C
S11300500C9464000C9464000C9464000C9464008C
S11300600C9464000C9464000C9464000C9464007C
S11300700C9464000C9464000C9464000C9464006C
S11300800C9464000C9464000C9464000C9464005C
S11300900C9464000C9464000C9464000C9464004C
S11300A00C9464000C9464000C9464000C9464003C
S11300B00C94640011241FBECFEFD8E0DEBFCDBF87
S11300C00E949A000C94A5000C94000084B58260F0
S11300D084BD8CE987BD85B5856085BD18BC089550
S11300E01F9908C098B587B5981720F488B58F5F15
S11300F088BD08C01F9B06C088B5882319F088B541
S1130100815088BD88B5882319F085B1806285B98E
S1130110AA9BFECF98B587B5981719F085B18F7D46
S113012085B985B3846085BBA99BFECF85B3826006
S113013085BB08950E94660084B18F6784B985B138
S11101408F7D85B90E947000FDCFF894FFCF2B
S9030000FC
