:100000000C945A000C946F000C946F000C946F00C9
:100010000C946F000C946F000C946F000C946F00A4
:100020000C946F000C946F000C946F000C946F0094
:100030000C946F000C946F000C946F000C946F0084
:100040000C946F000C946F000C946F000C946F0074
:100050000C946F000C946F000C946F000C946F0064
:100060000C946F000C946F000C946F000C946F0054
:100070000C946F000C946F000C946F000C946F0044
:100080000C946F000C946F000C946F000C946F0034
:100090000C946F000C946F000C946F000C946F0024
:1000A0000C946F000C946F000C946F000C946F0014
:1000B0000C946F0011241FBECFEFD8E0DEBFCDBF80
:1000C00011E0A0E0B1E0E6E3F2E002C005900D929D
:1000D000A031B107D9F70E9412010C9419010C94B8
:1000E00000008AB1806F8AB984B184B985B18F600C
:1000F00085B989B1806F89B908951092C50087E6E6
:100100008093C40088E18093C100E2ECF0E080813C
:100110008660808308959091C00095FFFCCF809306
:10012000C60008958F929F92AF92CF92DF92EF9286
:10013000FF920F931F93CF93DF93CDB7DEB76097F6
:100140000FB6F894DEBF0FBECDBF80E1E0E0F1E076
:10015000DE01119601900D928A95E1F76894AA2428
:10016000A2F84AC08BB1EA2CF12C01E010E0480162
:100170000A2C02C0880C991C0A94E2F7982D9095DD
:1001800089238BB910E031C083B1C12ED12C90E00E
:10019000012E02C0959587950A94E2F780FD24C050
:1001A000F7013497EE0FFF1FEE0FFF1F81E090E085
:1001B0008C0F9D1FE80FF91FEC0DFD1D80810E9423
:1001C0008B0083B190E00C2C02C0959587950A9422
:1001D000E2F780FFF6CF9FEF20E782E091502040CA
:1001E0008040E1F700C000001F5F143068F28BB15F
:1001F000082F08290BB9A39497E09A1508F0B2CFFD
:1002000060960FB6F894DEBF0FBECDBFDF91CF91E1
:100210001F910F91FF90EF90DF90CF90AF909F9044
:100220008F9008950E9471000E947D000E949200AC
:06023000FDCFF894FFCFA2
:100236003132334134353642373839432A30234454
:00000001FF
