S01600004C6162315F4D6F727365436F64652E73726563EE
S11300000C945A000C9477000C9477000C947700AD
S11300100C9477000C9477000C9477000C94770080
S11300200C9477000C9477000C9477000C94770070
S11300300C9477000C9477000C9477000C94770060
S11300400C9477000C9477000C9477000C94770050
S11300500C9477000C9477000C9477000C94770040
S11300600C9477000C9477000C9477000C94770030
S11300700C9477000C9477000C9477000C94770020
S11300800C9477000C9477000C9477000C94770010
S11300900C9477000C9477000C9477000C94770000
S11300A00C9477000C9477000C9477000C947700F0
S11300B00C94770011241FBECFEFD8E0DEBFCDBF74
S11300C011E0A0E0B1E0E0E9F3E002C005900D9298
S11300D0AE31B107D9F721E0AEE1B1E001C01D9224
S11300E0AF31B207E1F70E948D010C94C6010C9464
S11300F0000007C0EFE3FCE93197F1F700C000000E
S11301008A508111F7CF089595B1906295B90E94F4
S1130110790085B18F7D85B92FEF83EC99E021506B
S113012080409040E1F700C000000895CF93DF9332
S1130130CDB7DEB7C058D1090FB6F894DEBF0FBEF5
S1130140CDBFFE01E55BFF4F26E3DF011D922A953B
S1130150E9F729E130E0318320832BE432E0338373
S113016022832BEC32E0358324832BE430E0378385
S1130170268321E030E03187208729EC32E0338781
S113018022872BE530E03587248729E432E037875E
S1130190268729E030E0318B208B29ED36E0338B44
S11301A0228B2BEC30E0358B248B29E532E0378B26
S11301B0268B2BE130E0318F208F2BE030E0338F22
S11301C0228F2BED30E0358F248F29ED32E0378FED
S11301D0268F2BE536E031A320A329E530E033A3B5
S11301E022A329E430E035A324A323E030E037A39D
S11301F026A329EC30E031A720A729E436E033A771
S113020022A729ED30E035A724A72BE436E037A751
S113021026A72BEC36E031AB20AB2BE532E033AB39
S113022022AB26E3DE01119601900D922A95E1F7A7
S113023024E1E0E0F1E0DE01D79601900D922A95E9
S1130240E1F78134910570F0FC01E154F109EE0FFE
S1130250FF1F81E090E08C0F9D1FE80FF91F808144
S1130260918112C08A33910578F48032910561F04E
S1130270FC01F097EE0FFF1FA1E0B0E0AC0FBD1F33
S1130280EA0FFB1F86A997A9C058DF4F0FB6F89451
S1130290DEBF0FBECDBFDF91CF910895EF92FF92E5
S11302A00F931F93CF93DF931F92CDB7DEB78C01CB
S11302B07B018097D1F42FEF87E99AE321508040A6
S11302C09040E1F700C0000020C0802F8770898330
S11302D0898128EC829FC00111240E948400169514
S11302E0079516950795169507950115110569F754
S11302F080E2E816F10449F09FEF27E883E191508A
S113030020408040E1F700C000000F90DF91CF91C2
S11303101F910F91FF90EF900895CF93DF93CDB786
S1130320DEB72A970FB6F894DEBF0FBECDBF84B1F7
S1130330806284B98AE0E4E1F1E0DE011196019083
S11303400D928A95E1F720911E01E1E0F0E0EC0FB7
S1130350FD1FE20FF11D808190E02F5F20931E01AD
S1130360E1E0F0E0EC0FFD1FE20FF11D108181369A
S1130370910508F080970E949600612F70E00E941A
S11303804E011111E0CF10921E01DDCFF894FFCF82
S1130390DB36D936C9364936493249124B125B121B
S11103A0DB12DB163832363433333430370098
S9030000FC
